:020000040800F2
:1000000000000220B9020008E9520008EB52000883
:10001000ED520008EF520008F15200080000000005
:10002000000000000000000000000000F352000883
:10003000F552000800000000F7520008F9520008CD
:10004000E5030008E5030008E5030008E5030008F0
:10005000E5030008E5030008BD520008E5030008B9
:10006000E5030008E5030008E5030008C95200089D
:10007000E5030008E5030008E5030008E5030008C0
:10008000D9520008E5030008E5030008E50300086D
:10009000E5030008E5030008E5030008E5030008A0
:1000A000E5030008E5030008E5030008E503000890
:1000B000E5030008E5030008E5030008E503000880
:1000C000E5030008E5030008E5030008E503000870
:1000D000E5030008E5030008E5030008E503000860
:1000E000E5030008E5030008E5030008E503000850
:1000F000E5030008E5030008E5030008E503000840
:10010000E5030008E5030008E5030008E50300082F
:10011000E5030008E5030008E5030008E50300081F
:10012000E5030008E5030008E5030008E50300080F
:10013000E5030008E5030008E5030008E5030008FF
:10014000E5030008E5030008E5030008E5030008EF
:10015000E5030008E5030008E5030008E5030008DF
:10016000E5030008E5030008E5030008E5030008CF
:10017000E5030008E5030008E503000800000000AF
:10018000E5030008E503000800B583B003F00AFEAC
:10019000384B394A1360394A1360394906E052F83E
:1001A000041B43F8041B9842F9D86146354B994229
:1001B00005D20A684B6801F10C0C8868F3E72E4BF6
:1001C0001A68314B9A4200D0FEE72C4B1A682F4B2D
:1001D0009A42F9D1274B2E4A13602E4A13602E4AB9
:1001E00000E002462D4B9A4209D2104650F8083BD7
:1001F00051689942F5D9002243F8042BF9E7244BC2
:100200001B6813B9234B1B6803B1FEE704F022FF00
:10021000694601A803F0DEFA214C224BE41AA4102F
:10022000002504E01F4B53F8253098470135AC42B8
:10023000F8DC1D4C1D4BE41AA410002504E01B4BF8
:1002400053F8253098470135AC42F8DC0099019805
:1002500004F032FF0546164C164BE41AA41004E0D5
:10026000013C144B53F824309847002CF8DC284606
:1002700003F04CFABABADECA000000207801002070
:10028000E8030008000400087856341232547698C7
:100290007C0100206C4600200004000810040008C7
:1002A00010040008100400081004000810040008DE
:1002B000100400081004000808B5FFF765FF00BE31
:1002C000FEE71EF0040F0CBFEFF30880EFF3098088
:1002D0007146414A10472DE9F04182B004460D466F
:1002E000124B5F6BD3F838809E6A1B6B13F0020FC2
:1002F00003D00E4BDB6A002B0BDB0D4803F02CFC0C
:10030000009543463A463146204603F061FC00BE64
:10031000FEE74BF6AB6103F0D5FC0028EDD0034BB4
:100320004FF00042DA6202B0BDE8F08100ED00E07B
:10033000B486000800BEFEE71EF0040F0CBFEFF30A
:100340000880EFF309807146244A10472DE9F041F7
:1003500082B004460D46084B5F6BD3F838809E6A26
:10036000064803F0F9FB009543463A4631462046DD
:1003700003F02EFC00BEFEE700ED00E0C48600089E
:100380001EF0040F0CBFEFF30880EFF309807146F5
:10039000134A10472DE9F04182B004460D46084B40
:1003A0005F6BD3F838809E6A064803F0D5FB009552
:1003B00043463A463146204603F00AFC00BEFEE7BB
:1003C00000ED00E0D086000800BEFEE700BEFEE7BC
:1003D00000BEFEE770470000D70200084D0300088A
:0803E0009503000800BEFEE7D2
:1003E800248C0008000000207C010020248C0008D8
:1003F80000000010000000107C0100207046002062
:080408000000001000000010CC
:1004100000B589B000210191114B5A6C42F4805211
:100420005A645A6C02F480520192019A02911A6B3A
:1004300042F001021A631B6B03F001030293029B5B
:10044000E0230393022304930593012306930523DA
:10045000079303A9034800F057FE09B05DF804FBB9
:10046000003802400000024010B5104803F0E6F8E2
:1004700000B110BD0D4C0E4B23601823E361002327
:10048000A36063612361A3620722E262E3602362E7
:100490004FF40072A26163624FF482736360FFF7EE
:1004A000B7FF204602F0C8FCE3E700BF8001002050
:1004B0000030014008B5034802F012FEFFF7D4FFF8
:1004C00008BD00BF8001002000B587B08DF80F0087
:1004D00000238DF817300A4B1B68009301230DF1A0
:1004E00017020DF10F01074802F028FF20B99DF80F
:1004F000170007B05DF804FBFFF7DCFFF7E700BF6C
:10050000080000208001002030B587B00C46054669
:1005100058B9002300931A4B1A6B42F001021A6378
:100520001B6B03F001030093009B1CB1012C0FD047
:1005300007B030BD012301930023029303930223EC
:10054000049301A90F4B53F8250000F0DDFDEDE702
:100550000123019300240394022304934FF44413D2
:10056000029301A9074B53F8250000F0CDFD224668
:100570000F21062000F0BEF9062000F0DFF9D7E7D2
:10058000003802400400002008B50121024B53F856
:10059000200000F019FF08BD0400002070B586B0EF
:1005A000002100910E4B1A6B42F010021A631B6B74
:1005B00003F010030093009B082601960124029487
:1005C00003910494074D01A9284600F09DFD2246A1
:1005D0003146284600F00CFFFFF746FF06B070BD1D
:1005E000003802400010024010B586B0002400948C
:1005F0000F4B1A6B42F010021A631B6B03F01003CF
:100600000093009B022301934FF4881202920493FB
:10061000039401A9074800F077FD22460F21072027
:1006200000F068F9072000F089F906B010BD00BF9E
:10063000003802400010024070B505460E461446D0
:10064000012A01D941F04006002208210A4800F0A1
:10065000CFFE3046FFF738FF05E015F8010BFFF736
:1006600033FF013CA4B2002CF7D10122082102483B
:1006700000F0BEFE70BD00BF0010024070B5054620
:100680001446012A0AD941F0C006002208210C486C
:1006900000F0AEFE3046FFF717FF09E041F080069C
:1006A000F3E70020FFF710FF05F8010B013CA4B2AF
:1006B000002CF6D101220821014800F099FE70BDFE
:1006C0000010024030B587B000238DF80C308DF853
:1006D0000D308DF80E30234B9B6898473B2807D090
:1006E000214B9B6898473F2824D0012007B030BD9C
:1006F0001E4D1C4B2B6040228DF8102000248DF8DD
:10070000114007228DF812208DF813408DF8144007
:100710001B684720984720238DF80C3001238DF863
:100720000D300C238DF80E302B689B6A2D209847D6
:100730002046DBE70C4B0D4A136060228DF8042045
:1007400007228DF8052000248DF806408DF807401B
:100750008DF808408DF809401B68672098472046AF
:10076000C4E700BF800000204C000020D80100201A
:100770007047000010B504460E4B1A784FF47A7398
:10078000B3FBF2F30C4A1068B0FBF3F000F0ECF8A6
:1007900068B90F2C01D901200AE0002221464FF050
:1007A000FF3000F0A7F8054B1C60002000E001209E
:1007B00010BD00BF0C00002014000020100000201D
:1007C00008B50B4B1A6842F400721A601A6842F4BA
:1007D00080621A601A6842F480721A60032000F086
:1007E0006BF80F20FFF7C6FFFFF7C2FF002008BD20
:1007F000003C0240034A1168034B1B780B44136012
:10080000704700BFDC0100200C000020014B18687D
:10081000704700BFDC01002038B50446FFF7F6FF43
:100820000546B4F1FF3F02D0044B1B781C44FFF790
:10083000EDFF401BA042FAD338BD00BF0C000020E2
:100840004FF0E022136923F00203136170470000A8
:10085000002808DB0901C9B200F1604000F56140E1
:1008600080F80013704700F00F000901C9B2014B76
:100870001954704714ED00E000B500F00700C0F116
:10088000070CBCF1040F28BF4FF0040C031D062B0E
:100890000FD9C31E4FF0FF3E0EFA0CF021EA000103
:1008A00099400EFA03FE22EA0E0241EA02005DF8C8
:1008B00004FB0023EEE7000010B50446C31E042B22
:1008C0000FD80A4AD36823F4E0631B041B0C2402EC
:1008D00004F4E064234343F0BF6343F40033D36084
:1008E00010BD9021024802F0ADFEEAE700ED00E005
:1008F000FC83000870B506460C4615460F2A0ED834
:100900000F2C11D80B4BD8682A462146C0F3022081
:10091000FFF7B2FF01463046FFF79AFF70BDA821EE
:10092000054802F08FFEEBE7A921034802F08AFE9A
:10093000E8E700BF00ED00E0FC83000808B50028F0
:1009400008DB00F01F02400901239340044A42F8EB
:10095000203008BDBC21034802F074FEF9E700BF57
:1009600000E100E0FC8300080138B0F1807F0BD289
:100970004FF0E0235861054AF02182F8231000204F
:10098000986107221A6170470120704700ED00E06E
:10099000704708B5FFF7FCFF08BD30B405682C6848
:1009A00024F480242C60046863608368402B05D0A5
:1009B000036899600368DA6030BC704703689A6026
:1009C0000368D960F8E7000010B40368D9B21039A1
:1009D0000A4AA2FB01421209094CA25CC2655F29C6
:1009E00007D96FF3090304338365806D5DF8044B09
:1009F00070476FF309038365F7E700BFABAAAAAAA4
:100A000020890008836A826992B9012B0AD0022BDF
:100A100002D00BB100207047C36A13F0807F28D149
:100A200000207047C36AB3F1C07F24D00020704714
:100A3000B2F5005F09D0022B25D9032B25D1C36A5B
:100A400013F0807F23D100207047032B03D8DFE809
:100A500003F01404140A00207047C36A13F0807F67
:100A60000DD100207047C36AB3F1C07F09D00020C8
:100A70007047012070470120704701207047012016
:100A80007047012070470120704700207047012007
:100A90007047000070B50446FFF7B8FE002C00F068
:100AA0003E8105462368954A934231D018329342DD
:100AB0002ED0183293422BD01832934228D01832BD
:100AC000934225D01832934222D0183293421FD03D
:100AD000183293421CD002F55672934218D0183245
:100AE000934215D01832934212D0183293420FD04D
:100AF000183293420CD01832934209D018329342E4
:100B000006D01832934203D0B7217D4802F09AFDF7
:100B10006368A3B1B3F1007F11D0B3F1806F0ED041
:100B2000B3F1C06F0BD0B3F1006F08D0B3F1206FF9
:100B300005D0B3F1406F02D0B3F1606F6DD1A368FF
:100B40001BB1402B01D0802B6CD1E368B3F5007F43
:100B500001D0002B6BD12369B3F5806F01D0002B3E
:100B60006AD163692BB1B3F5006F02D0B3F5805F32
:100B700067D1A3692BB1B3F5005F02D0B3F5804F05
:100B800064D1E36923B1B3F5807F01D0202B62D11A
:100B9000236A43B1B3F5803F05D0B3F5003F02D0DF
:100BA000B3F5403F5CD1636A0BB1042B5DD1636A3E
:100BB000C3B1A36A032B5DD8E36A43B1B3F5000F59
:100BC00005D0B3F1807F02D0B3F1C07F57D1236B42
:100BD00043B1B3F5001F05D0B3F5800F02D0B3F5D4
:100BE000C00F51D1022384F83530002384F834300B
:100BF0002268136823F00103136023681A6812F057
:100C0000010F46D0FFF702FE401B0528F5D920232F
:100C10006365032084F8350070BDB821384802F0C0
:100C200011FD8CE7B921364802F00CFD8DE7BA21A1
:100C3000334802F007FD8EE7BB21314802F002FD88
:100C40008FE7BC212E4802F0FDFC92E7BD212C4825
:100C500002F0F8FC95E7BE21294802F0F3FC97E783
:100C6000BF21274802F0EEFC9DE7C021244802F096
:100C7000E9FC9CE7C521224802F0E4FC9CE7C62180
:100C80001F4802F0DFFCA2E7C7211D4802F0DAFC92
:100C9000A8E71A681B4911406268A0680243E0682F
:100CA00002432069024360690243A0690243E0698C
:100CB0000243206A02430A43616A042924D01A606D
:100CC0002668756925F00705636A1D43042B07D163
:100CD000A36A1D43E36A1BB12046FFF793FEC0B928
:100CE00075612046FFF770FEE26D3F2393408360FD
:100CF00000206065012384F835308DE710600240E4
:100D0000308400083F8010F0E16A206B01430A4301
:100D1000D5E740236365012084F835007CE7012096
:100D20007AE700BF002864D038B5044690F8353023
:100D3000D8B2022B5CD023682F4A934232D01832AB
:100D400093422FD0183293422CD01832934229D09C
:100D50001832934226D01832934223D0183293424D
:100D600020D0183293421DD002F55672934219D00A
:100D70001832934216D01832934213D0183293424D
:100D800010D0183293420DD0183293420AD0183244
:100D9000934207D01832934204D040F247111748CB
:100DA00002F050FC2268136823F0010313602368EB
:100DB00000251D6023685D6023689D602368DD60F9
:100DC00023681D61236821225A612046FFF7FCFD3C
:100DD000E56325646564A564E5642565E26D3F23EC
:100DE00093408360656584F8355084F83450284614
:100DF00038BD0120704700BF1060024030840008F9
:100E00002DE9F04104460E4617461D46D0F858809D
:100E1000581E4FF6FE73984210D894F83430012BC8
:100E200035D0012384F8343094F83530012B0BD0C1
:100E3000002384F834300220BDE8F08140F2CB1169
:100E4000144802F0FFFBE8E7022384F83530002362
:100E500063652B463A4631462046FFF79EFDE26D1C
:100E60003F239340C8F808302268136843F0160304
:100E70001360236C23B12268136843F008031360E6
:100E80002268136843F0010313600020D4E70220B6
:100E9000D2E700BF3084000870B50446866DFFF7C6
:100EA000B5FC94F83530022B06D08023636500230F
:100EB00084F83430012070BD05462268136823F0A1
:100EC000160313602268536923F080035361236C77
:100ED000E3B12268136823F00803136022681368E3
:100EE00023F00103136023681B6813F0010F11D076
:100EF000FFF78CFC431B052BF5D9202363650320EA
:100F000084F83500002384F83430D4E7A36C002B38
:100F1000DFD1E3E7E26D3F239340B360012384F820
:100F20003530002084F83400C5E70000F0B583B008
:100F3000044600230193724B1D68724BA3FB0535D9
:100F4000AD0A876D3E68C26D08239340334210D0CE
:100F500003681A6812F0040F0BD01A6822F004021A
:100F60001A60C26D08239340BB60436D43F00103D8
:100F70004365E26D01239340334209D022685269F0
:100F800012F0800F04D0BB60636D43F00203636511
:100F9000E26D04239340334209D02268126812F0B4
:100FA000020F04D0BB60636D43F004036365E26D20
:100FB00010239340334224D02268126812F0080FA5
:100FC0001FD0BB6023681A6812F4802F0DD01B68F5
:100FD00013F4002F04D1236C9BB12046984710E0F6
:100FE000A36C73B1204698470BE01A6812F4807F17
:100FF00003D11A6822F008021A60236C0BB1204654
:101000009847E26D20239340334254D022681268FF
:1010100012F0100F4FD0BB6094F83530052B0ED076
:1010200023681A6812F4802F33D01B6813F4002F42
:101030002AD1636C002B3ED0204698473BE02268C3
:10104000136823F0160313602268536923F08003AA
:101050005361236CA3B12268136823F00803136063
:10106000E26D3F239340BB60012384F835300023B9
:1010700084F83430236D002B3FD0204698473CE065
:10108000A36C002BE7D1EBE7E36BA3B120469847B5
:1010900011E01A6812F4807F09D11A6822F0100258
:1010A0001A60012384F83530002384F83430E36B70
:1010B0000BB120469847636DFBB1636D13F0010FD0
:1010C00017D0052384F835302268136823F0010314
:1010D0001360019B01330193AB4204D823681B6862
:1010E00013F0010FF5D1012384F83530002384F883
:1010F0003430E36C0BB12046984703B0F0BD00BF1D
:1011000014000020B5814E1B2DE9F04182B0074646
:101110000E46A84B984223D003F5806398421FD017
:1011200003F5806398421BD003F58063984217D083
:1011300003F58063984213D003F5806398420FD083
:1011400003F5806398420BD003F58063984207D083
:1011500003F58063984203D0AC21974802F072FAFD
:1011600033689AB212B11B0C1B041BB1AD2192481B
:1011700002F068FA7368012B10D9B3F5041F0DD083
:1011800011D8B3F5881F09D003D9B3F5901F05D046
:1011900012E0032B04D9113B012B0DD8002486E06B
:1011A000022B09D3FAE7B3F5441FF7D0B3F5481F74
:1011B000F4D0B3F5081FF1D0AE217F4802F042FA17
:1011C000ECE7F368032B13D8BA68610003238B4064
:1011D00022EA0302F3688B401343BB607A6822EA79
:1011E00005027368C3F30013A34013437B606FE0F1
:1011F000C021714802F026FAE6E7D1216E4802F0DC
:1012000021FA6DE033694BB10D2B05D833B9DE21DE
:10121000694802F017FA01E00F2BF8D1E208083212
:1012200057F8220004F0070189000F238B4020EAC1
:10123000030033698B40034347F822305FE0072304
:1012400000E000238B40034302325C4941F8223026
:101250005B4B9A686FEA080322EA0801706810F491
:10126000801F01D048EA0201554A9160D26803EA22
:101270000201706810F4001F01D048EA0201504AD0
:10128000D160526803EA0201706810F4003F01D097
:1012900048EA02014A4A516012681340716811F429
:1012A000803F01D048EA0203454A136001340F2C05
:1012B0007CD80125A540336803EA050835EA030315
:1012C000F4D1736803F00303013B012B7FF679AF80
:1012D000736803F00303032B0CD0B368022B8CD884
:1012E000FA68610003238B4022EA0302B3688B4053
:1012F0001343FB60736803F00303022B82D03A6848
:10130000610003238B4022EA0302736803F00303A6
:101310008B4013433B60736813F4403FC6D00023F7
:101320000193284B5A6C42F480425A645B6C03F47C
:1013300080430193019BA208911C204B53F821008C
:1013400004F0030189000F238B4020EA0300194BAE
:101350009F423FF476AF03F580639F421AD003F5B6
:1013600080639F4218D003F580639F4216D003F537
:1013700080639F4214D003F580639F4212D003F52F
:1013800080639F4210D003F580639F423FF457AFC4
:10139000082357E7012355E7022353E7032351E7C7
:1013A00004234FE705234DE706234BE702B0BDE8D2
:1013B000F08100BF00000240608400080038014056
:1013C000003C01400038024038B504460D4621B1CA
:1013D00023691D4207D0012038BD4FF4BE71034878
:1013E00002F030F9F4E70020F6E700BF608400085F
:1013F00070B5054614460E4621B1012C08D86CB1D3
:10140000AE6170BD40F29D11064802F01BF9F4E791
:101410004FF4CF71034802F015F9F0E73604AE61DE
:10142000EFE700BF6084000808B5054B5B69034225
:1014300000D108BD024B586104F054F8F9E700BF31
:10144000003C01402DE9F8430646884617461D46F4
:10145000FFF7DCF9814633689C6838EA04040CBF66
:1014600001240024BC4212D0B5F1FF3FF3D0FFF7B6
:10147000CDF9A0EB0900A84201D2002DEBD1012348
:1014800086F84130002386F84030032000E0002039
:10149000BDE8F88370470000002800F0328138B5BD
:1014A00004460368984A934208D002F5806293424A
:1014B00004D040F21B11954802F0C4F8636843B1B0
:1014C000B3F5807F05D0B3F5007F02D0B3F5407F40
:1014D0007FD1A3683BB1102B05D0202B03D0302B3C
:1014E00001D0B02B7BD1E368012B03D9032B01D0B2
:1014F000052B7AD12369B3F5007F01D0002B7AD177
:101500006369A3F5FA51824A914201D9022B78D13D
:10151000A3690BB1082B7AD1E369012B7DD894F82C
:101520004130002B7FD0022284F841202168CB6912
:1015300023F47B6323F00F03CB6123681A62636992
:10154000934200F09280E368002B74D11025A368C9
:10155000202B00D86D00012001F096FB2369B3F524
:10156000007F6AD0B0FBF5F000EB800043006269B9
:10157000B3FBF2F30533674AA2FB0323C3F3C002B4
:10158000C2EBD3035B0811029A1EFD2A6FD82269B1
:101590000A4321681A430A622168CB6923F47B63FA
:1015A00023F00F036268A0680243E0680243A06969
:1015B0000243134343F40063CB61236A012B5CD8DD
:1015C000236A012B5FD000206064012384F841303E
:1015D00038BD4FF48E714D4802F034F879E740F28F
:1015E0001D114A4802F02EF87DE74FF48F714748ED
:1015F00002F028F87EE740F21F11444802F022F87A
:101600007EE74FF49071414802F01CF880E740F209
:1016100021113E4802F016F87EE74FF491713B48E5
:1016200002F010F87BE784F840303B4B63632046C0
:10163000FFF730FF77E7202589E7E36853B1AD0076
:10164000B0FBF5F000EB800043006269B3FBF2F3FE
:10165000053390E7ED00B0FBF5F000EB80004300B0
:101660006269B3FBF2F3053385E700218CE7636C15
:1016700043F0100363640120AAE740F2BD11234840
:1016800001F0E0FF9CE7254B636322681E4B9A4202
:101690001FD04FF04022D36923F47B6323F00F0364
:1016A000D3612268184B9A4215D04FF04023022292
:1016B0001A622268144B9A4210D04FF04025EB6911
:1016C0009BB26268B2F5007F0AD0C2B94FF4807055
:1016D00008E0134ADFE7A3F58063E8E7104DEEE783
:1016E0004FF48070B4F808C0A189228B40EA0C0046
:1016F00001430A43134343F40063EB6163E70020B3
:10170000F0E70120704700BF0038004090840008D7
:10171000C0CE0200CDCCCCCC111B0008DD1F0008D0
:1017200000340040034690F84020D2B2012A32D063
:10173000012280F8402090F84120D2B2032A19D02B
:1017400090F84120D2B2042A1DD090F84120D2B2A4
:10175000052A14D101684A6822F003024A60016830
:101760000E4A914215D04FF040214A6822F0030200
:101770004A6004E001684A6822F002024A600020E0
:1017800083F84000704701684A6822F001024A600D
:10179000F5E70349E9E70220704700BF0038004041
:1017A00000340040034690F84020D2B2012A4CD0C9
:1017B000012280F8402090F84120D2B2032A27D09D
:1017C00090F84120D2B2042A34D090F84120D2B20D
:1017D000052A22D101684A6842F003024A60016882
:1017E0001B4A91422CD04FF040214A6842F003023C
:1017F0004A601968164A914224D04FF04022D169BC
:1018000011F4806F09D1D16941F48061D16104E0A4
:1018100001684A6842F002024A601A68D16911F40C
:10182000806F03D1D16941F48061D161002083F8D8
:101830004000704701684A6842F001024A60ECE7E4
:101840000449D2E7A2F58062D9E70220704700BFC1
:10185000003800400034004070B584B0044643684E
:10186000B3F5007F02D0002B40F08280A06B48B11E
:10187000FFF712FB054630B1636C43F00803636465
:10188000012500E000256423012202212046FFF704
:10189000D9FD30B1636C43F001036364012584F822
:1018A00041506423002280212046FFF7CBFD30B158
:1018B000636C43F001036364012584F8415022689E
:1018C000D36923F48063D3610023009323689A686B
:1018D0000092009A5A6822F002025A6094F841304D
:1018E000DBB2052B05D0012384F84130284604B033
:1018F00070BDE06B38B1FFF7CFFA20B1636C43F0F5
:101900000803636401252268624B9A4220D04FF09D
:101910004022D36923F48063D361002301932268BA
:101920005C4B9A4216D04FF04023DA6801929A68D5
:101930000192019A5A6822F001025A60636863B901
:10194000636C43F040036364012584F84150CAE7A7
:10195000514ADEE7A3F58063E7E722684D4B9A42E0
:1019600003D04FF04023DB68BDE7A3F58063FAE7BF
:10197000B3F5407F04D0B3F5807F01D00025B2E7F6
:10198000E06B48B1FFF788FA054630B1636C43F06D
:1019900008036364012500E0002594F84130DBB2C0
:1019A000052B17D02268D36923F48063D361002309
:1019B00003932368DA6803929A680392039A5A6839
:1019C00022F001025A606368B3F5807F5AD0236821
:1019D000DB6888E7A06B38B1FFF75EFA20B1636C73
:1019E00043F0080363640125FEF710FF064612E08A
:1019F000636C43F001036364012584F841500AE0FD
:101A0000A3F580639B6813F0020F1ED1FEF7FEFE64
:101A1000801B6428ECD822681E4B9A42F0D04FF00D
:101A20004023EFE7636C43F001036364012584F80E
:101A300041500AE0A3F580639A6812F0800F0BD042
:101A4000FEF7E4FE801B6428ECD82268114B9A4212
:101A5000F0D04FF04023EFE7DA6922F48062DA61D8
:101A60000023029322680B4B9A4209D04FF0402288
:101A700093680293029B536823F00203536091E73B
:101A8000054AF5E7636C43F040036364012584F87D
:101A9000415028E70038004000340040704708B546
:101AA000426A03681288DA60436A02334362438DF4
:101AB0009BB2013B9BB24385438D9BB203B108BDF2
:101AC0000268536823F0A0035360012380F841307B
:101AD000FFF7E4FFF3E7704708B50368DA68C36A05
:101AE0001A80C36A0233C362438E9BB2013B9BB22E
:101AF0004386438E9BB203B108BD0268536823F04E
:101B000060035360012380F84130FFF7E4FFF3E7FF
:101B100010B584B0044602689368039390F841308E
:101B2000DBB2042B06D094F84130DBB2032B2CD06F
:101B300004B010BD039B13F0010F03D0536813F0E2
:101B4000400F1FD1039B13F0400FECD023685A685D
:101B500012F0200FE7D05A6822F060025A6000238A
:101B600001932368DA6801929B680193019B01232A
:101B700084F84130636C43F002036364204604F050
:101B8000B3F8D0E7FFF7A8FFDCE7039B13F0020FE1
:101B900004D023685B6813F0800F1DD1039B13F002
:101BA000080FC5D023685A6812F0200FC0D05A68B9
:101BB00022F0A0025A600023029323689B680293DC
:101BC000029B012384F84130636C43F00403636497
:101BD000204604F089F8ABE72046FFF760FFDDE719
:101BE00090F841007047000008B5806B02685368A8
:101BF00023F00303536002680B4B9A4212D04FF05C
:101C00004022536823F00303536000234385438637
:101C1000012380F84130436C43F00803436404F02F
:101C200063F808BD014AECE700380040003400408A
:101C300070B582B0044690F84100C0B2012840F06F
:101C4000D2800D461646002900F0D180002A00F00F
:101C5000CE80002B00F0CB8094F84020D2B2012A35
:101C600000F0CB80012284F840206162E6622268A5
:101C7000D26902F00702032A06D0052A04D0238580
:101C800063852386638605E05B009BB223856385BD
:101C90002386638600236364052284F84120E26B77
:101CA00057491164E26B5749D163E16B564ACA64E4
:101CB000A16B0B64A16BCB63A36BDA642268D3695D
:101CC00003F44073B3F5007F01D0002B3ED1E06BED
:101CD0004E4B9A4233D04FF04021238E9BB2324676
:101CE0000C31FFF78DF82268484B9A4229D04FF00B
:101CF0004022536843F0010353602268238D9BB256
:101D00000C322946A06BFFF77BF82268536843F03A
:101D1000020353602368DA6912F4806F69D13B4A89
:101D2000934210D04FF04022D36943F48063D361D3
:101D30002268D36943F48063D361002054E03449BE
:101D4000CBE7334AD5E7A2F58062EDE7D36903F428
:101D50004073B3F5407F37D0A06B2C4B9A423BD0F9
:101D60004FF04022238D9BB20C322946FFF748F8F2
:101D70002268264B9A4231D04FF04022536843F0FC
:101D8000020353602168238E9BB232460C31E06B14
:101D9000FFF736F82268536843F001035360236865
:101DA000DA6912F4806F26D1184A934218D04FF0A6
:101DB0004022D36943F48063D3612268D36943F43A
:101DC0008063D36100200FE000230193D368019367
:101DD00093680193019BBFE70D4AC3E70C4ACDE727
:101DE000A2F58062E5E70220002384F8403002B0CB
:101DF00070BD0020F8E70020F6E70220F7E700BFFB
:101E0000151E0008211E0008E91B000800380040CC
:101E10000034004008B5806B03F058FF08BD000097
:101E200008B50346806BDB69F3B90268D36903F434
:101E30004073B3F5007F03D0D36913F4407F18D10A
:101E4000144B9A4213D04FF04022536823F0010301
:101E500053600268536823F00203536000234386F3
:101E60004385012380F8413003F024FF08BD0A4A6E
:101E7000EBE7536823F0010353600268054B9A4275
:101E800006D04FF04022536823F002035360E5E789
:101E9000014AF8E7003800400034004008B5436AC2
:101EA0009A1C426202681B88D360438D9BB2013B3F
:101EB0009BB24385438D9BB23BB90268536823F0C4
:101EC000A0035360438E9BB203B108BD012380F889
:101ED000413003F0EFFEF8E708B50268154B9A426F
:101EE0001CD04FF04023DA68C36A991CC1621A8083
:101EF000438E9BB2013B9BB24386438E9BB263B938
:101F000002680C4B9A420CD04FF04022536823F0E9
:101F100060035360438D9BB22BB108BDA3F5806372
:101F2000E1E7054AF2E7012380F8413003F0C2FE01
:101F3000F3E700BF003800400034004008B5436AB2
:101F40009A1C42621A880168134B994218D04FF0CC
:101F50004023DA60438D9BB2013B9BB24385438DA6
:101F60009BB263B902680C4B9A420CD04FF04022EE
:101F7000536823F0A0035360438E9BB22BB108BD7E
:101F8000A3F58063E5E7054AF2E7012380F84130D5
:101F900003F090FEF3E700BF00380040003400403B
:101FA00008B50368DA68C36A991CC1621A80438E57
:101FB0009BB2013B9BB24386438E9BB23BB9026806
:101FC000536823F060035360438D9BB203B108BD97
:101FD000012380F8413003F06DFEF8E710B586B0BC
:101FE000044603689A680592704A93426FD04FF096
:101FF0004022916804915B6803935368029363687D
:10200000B3F5007F01D0002B70D1059B13F0020FB8
:1020100003D0039B13F0800F5CD1049B13F0010FDE
:1020200003D0029B13F0400F58D1049B13F0400FD4
:1020300024D0029B13F0200F20D022685B4B9A42E1
:1020400050D04FF04022536823F060035360226861
:10205000536823F0A0035360002300932368DA68D9
:1020600000929B680093009B012384F84130636CCD
:1020700043F002036364204603F036FE059B13F031
:10208000080F22D0039B13F0200F1ED02268536844
:1020900023F0A00353602268444B9A4224D04FF0AF
:1020A0004022536823F060035360002301932368A8
:1020B0009B680193019B012384F84130636C43F0DA
:1020C00004036364204603F00FFE06B010BDA2F5C2
:1020D00080628EE72046FFF7E1FE9EE72046FFF78D
:1020E000FBFEA2E7324AAEE7314ADAE7049B13F07F
:1020F000020F03D0029B13F0800F4AD1059B13F00F
:10210000010F03D0039B13F0400F46D1059B13F042
:10211000400F1CD0039B13F0200F18D02268536887
:1021200023F0600353602268204B9A4239D04FF06D
:102130004022536823F0A0035360012384F8413008
:10214000636C43F002036364204603F0CDFD049BFF
:1021500013F0080FB9D0029B13F0200FB5D02268FE
:10216000124B9A421FD04FF04022536823F0A00335
:1021700053602268536823F060035360012384F89E
:102180004130636C43F004036364204603F0ACFD0C
:102190009BE72046FFF7D2FEB0E72046FFF700FF9F
:1021A000B4E7034AC5E7024ADFE700BF0038004052
:1021B00000340040002800F0608270B582B0044610
:1021C00003680F2B39D8236813F0010F4DD06368D3
:1021D0002BB1B3F5803F02D0B3F5A02F32D1804BA5
:1021E0009B6803F00C03042B36D07D4B9B6803F0F7
:1021F0000C03082B2BD06368B3F5803F5FD0B3F599
:10220000A02F62D0764B1A6822F480321A601A68C6
:1022100022F480221A606368002B60D0FEF7F6FA81
:1022200005466F4B1B6813F4003F1ED1FEF7EEFA14
:10223000401B6428F5D9032026E2E621694801F015
:1022400001FAC0E7EB21674801F0FCF9C7E7644BEE
:102250005B6813F4800FCED0614B1B6813F4003F12
:1022600003D06368002B00F00A82236813F0020F8A
:1022700066D0E368012B41D823691F2B44D8584B03
:102280009B6813F00C0F4AD0554B9B6803F00C036E
:10229000082B3FD0E368002B77D0534B01221A6004
:1022A000FEF7B4FA05464E4B1B6813F0020F63D1DC
:1022B000FEF7ACFA401B0228F5D90320E4E1484AB6
:1022C000136843F480331360A5E7454B1A6842F462
:1022D00080221A601A6842F480321A609BE7FEF787
:1022E00095FA05463E4B1B6813F4003FBDD0FEF740
:1022F0008DFA401B6428F5D90320C5E140F21D1179
:10230000384801F09FF9B7E74FF48F71354801F075
:1023100099F9B4E7324B5B6813F4800FBAD1304BB4
:102320001B6813F0020F03D0E368012B40F0A98172
:102330002B4A136823F0F803216943EAC1031360B1
:10234000236813F0080F51D06369012B2FD86369FC
:102350009BB3254B0122C3F8802EFEF757FA0546A2
:102360001F4B5B6F13F0020F40D1FEF74FFA401B7B
:102370000228F5D9032087E1194A136823F0F803EE
:10238000216943EAC1031360DAE7174B00221A60A0
:10239000FEF73CFA0546124B1B6813F0020FCFD034
:1023A000FEF734FA401B0228F5D903206CE14FF404
:1023B000AF710C4801F046F9C9E70B4B0022C3F896
:1023C000802EFEF723FA0546054B5B6F13F0020FD4
:1023D0000CD0FEF71BFA401B0228F5D9032053E16D
:1023E00000380240C084000800004742236813F010
:1023F000040F7CD0A368012B01D9052B38D1A54B44
:102400001B6C13F0805F39D100230193A14B1A6C30
:1024100042F080521A641B6C03F080530193019BBD
:1024200001259D4B1B6813F4807F29D0A368012BE5
:102430003AD0052B3ED0974B1A6F22F001021A6753
:102440001A6F22F004021A67A368002B3CD0FEF733
:10245000DDF906468F4B1B6F13F0020F45D1FEF7D7
:10246000D5F9801B41F288339842F3D903200BE160
:102470004FF4C571894801F0E5F8C0E70025D0E7C1
:10248000854A136843F480731360FEF7BFF906466C
:10249000814B1B6813F4807FC8D1FEF7B7F9801B0E
:1024A0000228F5D90320EFE07A4A136F43F00103C5
:1024B0001367C9E7774B1A6F42F004021A671A6F65
:1024C00042F001021A67BFE7FEF7A0F90646714B1A
:1024D0001B6F13F0020F08D0FEF798F9801B41F232
:1024E00088339842F3D90320CEE0002D3ED1A36972
:1024F000022B41D8A369002B00F0C580654A926881
:1025000002F00C02082A00F09380022B7CD1E369D0
:1025100013B1B3F5800F35D1236A3F2B38D8636AE6
:10252000323BB3F5BF7F39D8A36A022B08D0082B02
:102530003AD84FF4A87222FA03F313F0010F33D004
:10254000E36A023B0D2B35D8554B00221A66FEF785
:102550005DF905464F4B1B6813F0007F30D0FEF746
:1025600055F9401B0228F5D903208DE0494A136C28
:1025700023F080531364BAE740F2CD11474801F0CD
:1025800061F8B7E74FF4EB71444801F05BF8C3E73B
:1025900040F2D711414801F055F8C0E74FF4EC7113
:1025A0003E4801F04FF8BFE740F2D9113B4801F037
:1025B00049F8C5E74FF4ED71384801F043F8C3E737
:1025C000E369226A1343626A43EA8213A26A5208E9
:1025D000013A43EA0243E26A43EA02632D4A536046
:1025E0002F4B01221A66FEF711F90446294B1B688E
:1025F00013F0007F06D1FEF709F9001B0228F5D978
:10260000032041E000203FE0254B00221A66FEF740
:10261000FDF804461F4B1B6813F0007F06D0FEF741
:10262000F5F8001B0228F5D903202DE000202BE04F
:10263000012B2BD0174B5B6803F48001E2699142B8
:1026400026D103F03F02216A8A422BD1616A47F604
:10265000C0721A40B2EB811F26D103F44031A26A46
:102660005208013AB1EB024F20D103F07063E26AE5
:10267000B3EB026F1CD1002006E00120704701205F
:1026800002E0012000E0002002B070BD0120FBE765
:102690000120F9E70038024000700040C0840008C3
:1026A000000047420120EFE70120EDE70120EBE7C2
:1026B0000120E9E708B5334B9B6803F00C03042BBA
:1026C0005BD0082B5BD12F4B5A6802F03F025B684E
:1026D00013F4800F2CD02B4B5868C0F388104FEAAE
:1026E000401CBCEB000C6EEB0E0E4FEA8E1343EA5F
:1026F0009C634FEA8C11B1EB0C0163EB0E03DB0022
:1027000043EA5173C90011EB000C43F10003590275
:1027100000234FEA4C2041EADC5103F08DFF194BB6
:102720005B68C3F3014301335B00B0FBF3F027E0C8
:10273000144B5868C0F388104FEA401CBCEB000CE7
:102740006EEB0E0E4FEA8E1343EA9C634FEA8C1138
:10275000B1EB0C0163EB0E03DB0043EA5173C900DC
:1027600011EB000C43F10003990200234FEA8C2087
:1027700041EA9C5103F060FFD1E7034800E00348C1
:1027800008BD00BF0038024000127A000024F400A7
:10279000002800F0FA8070B50D4604460368013B3E
:1027A0000E2B30D8072D34D87C4B1B6803F0070361
:1027B000AB4208D2EBB2794A1370136803F00703F7
:1027C000AB4240F0E480236813F0020F32D013F0E4
:1027D000040F04D0724A936843F4E0539360236873
:1027E00013F0080F04D06E4A936843F4604393607B
:1027F000A368C3B1C02B16D049D8A02B13D00ED9D3
:10280000B02B10D049E040F25A21664800F01AFF80
:10281000C8E740F25B21634800F014FFC4E7802B57
:1028200001D0902B39D15E4A936823F0F003A16860
:102830000B439360236813F0010F48D06368032BA8
:1028400031D86368012B34D09A1E012A38D9544AF2
:10285000126812F0020F00F09C8051498A6822F041
:10286000030213438B60FDF7D1FF06464C4B9B6878
:1028700003F00C036268B3EB820F28D0FDF7C6FFAC
:10288000801B41F288339842F0D9032070E0E02B9E
:10289000C9D0F02BC7D0D02BC5D040F27E21414803
:1028A00000F0D0FEBFE740F285213E4800F0CAFEAE
:1028B000C7E73B4A126812F4003FCED1012057E02F
:1028C000374A126812F0007FC7D1012050E0334B25
:1028D0001B6803F00703AB4207D9EAB22F4B1A700B
:1028E0001B6803F00703AB4255D1236813F0040FB4
:1028F00014D0E3685BB1B3F5805F08D0B3F5A05F97
:1029000005D0B3F5C05F02D0B3F5E05F31D1244A02
:10291000936823F4E053E1680B439360236813F05A
:10292000080F15D023695BB1B3F5805F08D0B3F50C
:10293000A05F05D0B3F5C05F02D0B3F5E05F1ED154
:10294000174A936823F46043216943EAC103936003
:10295000FFF7B0FE124B9B68C3F30313124AD35C1C
:10296000D840124B1860124B1868FDF703FF002087
:1029700070BD40F2C3210B4800F064FEC7E740F28F
:10298000CA21084800F05EFEDAE701207047012006
:10299000EEE70120ECE70120EAE700BF003C02403F
:1029A00000380240C0840008288900081400002074
:1029B0001000002030B583B004460368013B062BAD
:1029C0001ED8236813F0050F46D0A368023B052BE1
:1029D0001CD86368323BB3F5BF7F1DD8994B0022EA
:1029E0009A66FDF713FF0546974B1B6813F0006FBF
:1029F00018D0FDF70BFF431B022BF5D903201FE175
:102A000040F6D711914800F01DFEDAE740F6DE11DE
:102A10008E4800F017FEDCE740F6DF118B4800F02F
:102A200011FEDBE76268A3681B0743EA8213864A4C
:102A3000C2F88430834B01229A66FDF7E7FE054613
:102A4000814B1B6813F0006F06D1FDF7DFFE431BBF
:102A5000022BF5D90320F3E0236813F0020F00F0F6
:102A6000EE80E368B3F5807F79D0B3F5007F76D050
:102A7000774A934273D002F5803293426FD002F5C9
:102A8000803293426BD002F58032934267D002F5D8
:102A90008032934263D002F5803293425FD002F5D8
:102AA000803293425BD002F58032934257D002F5D8
:102AB0008032934253D002F5803293424FD002F5D8
:102AC000803293424BD002F58032934247D002F5D8
:102AD0008032934243D002F5803293423FD002F5D8
:102AE000803293423BD002F58032934237D002F5D8
:102AF0008032934233D002F5803293422FD002F5D8
:102B0000803293422BD002F58032934227D002F5D7
:102B10008032934223D002F5803293421FD002F5D7
:102B2000803293421BD002F58032934217D002F5D7
:102B30008032934213D002F5803293420FD002F5D7
:102B4000803293420BD002F58032934207D002F5D7
:102B50008032934203D002F5803293421FD100238A
:102B60000193394B1A6C42F080521A641B6C03F0CB
:102B700080530193019B374A136843F480731360B9
:102B8000FDF744FE0546334B1B6813F4807F0CD1E0
:102B9000FDF73CFE431B022BF5D9032050E04FF418
:102BA00021612A4800F04EFDD9E7274B1B6F13F433
:102BB000407314D0E26802F440729A420FD0224B64
:102BC0001A6F22F440721F490120C1F8400E002004
:102BD000C1F8400E1A671B6F13F0010F13D1E368A1
:102BE00003F44072B2F5407F1ED0174A936823F475
:102BF000F813936014490B6FE268C2F30B0213439E
:102C00000B6700201CE0FDF701FE05460E4B1B6F15
:102C100013F0020FE3D1FDF7F9FD401B41F28833B9
:102C20009842F3D903200BE007498A6822F4F8128E
:102C300023F0704323F4407313438B60DAE70020E2
:102C400003B030BD0000474200380240F084000865
:102C5000000302000070004003230360094BD3F817
:102C60008420C2F388124260D3F88420C2F3027237
:102C700082609A6802F4F8121B6F03F440731343E6
:102C8000C360704700380240012801D0002070471F
:102C9000164B9B6813F4000303D0012B23D1144877
:102CA0007047124B5B6813F4800F14D00F4B5A68B7
:102CB00002F03F020F4BB3FBF2F30C4AD2F8840050
:102CC000C0F3881003FB00F0D2F88430C3F3027322
:102CD000B0FBF3F07047054B5A6802F03F02064B19
:102CE000B3FBF2F3E9E70020704700BF0038024071
:102CF0000080BB0000127A000024F4002DE9F047A8
:102D000082B00546884617461E46FDF77FFD0A9BA2
:102D10001B1A03EB0609FDF779FD82462A4B1B6857
:102D2000C3F3CB3309FB03F301932B689C6838EAA8
:102D300004040CBF01230023BB4240D0B6F1FF3F87
:102D4000F3D0FDF763FDA0EB0A0048450AD2B9F1C4
:102D5000000F07D0019A02B14A46019B013B019343
:102D60009146E2E72A68536823F0E00353606B68FA
:102D7000B3F5827F0BD0AB6AB3F5005F14D00123AB
:102D800085F85130002385F85030032018E0AB68F7
:102D9000B3F5004F02D0B3F5806FECD12A68136809
:102DA00023F040031360E6E72A68136823F4005316
:102DB00013602A68136843F400531360DFE70020B0
:102DC00002B0BDE8F08700BF1400002010B584B049
:102DD0000446164B1868164BA3FB0030400D4FF409
:102DE0007A7303FB00F003906368B3F5827F0BD026
:102DF000039BBBB1039B013B039323689B6813F0C8
:102E0000800FF5D100200EE000920B4600228021B9
:102E10002046FFF773FF30B1636D43F02003636515
:102E2000032000E0002004B010BD00BF140000200B
:102E3000819F5E1670470000002800F04D8110B59C
:102E4000044603689F4A93420CD0A2F5784293420D
:102E500008D002F58062934204D04FF4A0719A48E2
:102E600000F0F0FB636813B1B3F5827F43D1A36830
:102E70002BB1B3F5806F02D0B3F5004F41D1E368B9
:102E8000B3F5006F01D0002B41D1A369B3F5007FEA
:102E900003D013B1B3F5802F3FD1E36993B1182B61
:102EA00041D9382B09D8202B07D3203B4FF00132D2
:102EB00022FA03F313F0010F04D140F245118248C6
:102EC00000F0C0FB236A0BB1802B35D1636A0BB1D4
:102ED000102B37D1636A002B65D123690BB1022B0C
:102EE00036D16369012B39D86368B3F5827F3BD053
:102EF0000023E3616FE040F24111734800F0A2FB50
:102F0000B5E74FF4A171704800F09CFBB7E740F2C1
:102F100043116D4800F096FBB7E74FF4A2716A4881
:102F200000F090FBB9E7082BC7D3684A22FA03F3F5
:102F300013F0010FC1D0C5E74FF4A371624800F050
:102F400081FBC3E740F247115F4800F07BFBC1E71C
:102F50004FF4A5715C4800F075FBC2E740F24B11DD
:102F6000594800F06FFBBFE7E369A3B3182B11D9F1
:102F7000382B09D8202B07D3203B4FF0013222FAFF
:102F800003F313F0010F26D140F24F114E4800F029
:102F900059FB20E0082BF7D34C4A22FA03F313F035
:102FA000010FF1D017E0E36993B1182B65D9382BE5
:102FB00009D8202B07D3203B4FF0013222FA03F32C
:102FC00013F0010F04D140F259113F4800F03AFBD1
:102FD000002323616361A36A13B1B3F5005F55D188
:102FE000A36AB3F5005F57D094F85130002B62D03C
:102FF000022384F851302268136823F040031360E1
:10300000636803F48273A26802F404421343E26823
:1030100002F400621343226902F002021343626960
:1030200002F001021343A26902F400721343E26941
:1030300002F038021343226A02F080021343A26AAC
:1030400002F40052216813430B60638B03F0040306
:10305000626A02F01002216813434B60A36AB3F561
:10306000005F35D02268D36923F40063D361002068
:103070006065012384F8513010BD082BA3D3134A97
:1030800022FA03F313F0010F9DD0A1E74FF4B071C2
:103090000D4800F0D7FAA3E7E36A591E4FF6FE7217
:1030A000914202D813F0010F9ED140F263110648FD
:1030B00000F0C8FA98E784F850302046FFF7BAFECF
:1030C00096E700BF0030014024850008000101019F
:1030D0002368A28D1A61C5E7012070477047000080
:1030E00020B310B504460368114A93420CD0A2F5F0
:1030F0007842934208D002F58062934204D04FF4A4
:10310000DF710C4800F09EFA022384F851302268E7
:10311000136823F0400313602046FFF7DFFF002011
:10312000606584F8510084F8500010BD012070479C
:1031300000300140248500082DE9F04383B00446A7
:10314000894690461D46836813B1B3F5004F4FD1B1
:1031500094F85030012B00F0ED80012384F85030BA
:10316000FDF754FB074694F85160F6B2012E40F08B
:10317000CE80B9F1000F00F0CB80B8F1000F00F065
:10318000C780032384F8513000236365C4F830906E
:10319000A4F83480A4F83680A363A387E38763642C
:1031A0002364A368B3F5004F28D0A36AB3F5005F8A
:1031B0002FD023681A6812F0400F03D11A6842F02A
:1031C00040021A60E368B3F5006F2DD0636813B155
:1031D000B8F1010F63D1226B236812781A73236B45
:1031E00001332363E38E9BB2013B9BB2E38656E03F
:1031F0004FF44271504800F025FAA9E7226813689D
:1032000023F0400313602268136843F48043136083
:10321000CBE72268136823F4005313602268136815
:1032200043F400531360C4E7636813B1B8F1010FAE
:1032300016D1226B23681288DA60236B0233236372
:10324000E38E9BB2013B9BB2E38609E0FDF7DEFA19
:10325000C01BA84202D3B5F1FF3F63D1002D63D05C
:10326000E38E9BB2002B33D023689A6812F0020FD2
:10327000ECD0226B1288DA60236B02332363E38E77
:103280009BB2013B9BB2E386EAE7FDF7BFFAC01BA6
:10329000A84202D3B5F1FF3F48D1002D48D0E38EBC
:1032A0009BB2ABB123689A6812F0020FEDD0226B8B
:1032B00012781A73236B01332363B4F836C01FFAF4
:1032C0008CFC0CF1FF3C1FFA8CFCA4F836C0E6E73E
:1032D000A36AB3F5005F14D03A4629462046FFF7AB
:1032E00075FD08B120236365A36833B90193236892
:1032F000DA6801929B680193019B636D43B90026D4
:1033000006E02268136843F480531360E4E7022662
:10331000012384F85130002384F85030304603B044
:10332000BDE8F0830326F3E70326F1E70326EFE782
:103330000326EDE70226F1E7248500082DE9F04396
:1033400085B00446884691461F460C9D0023039392
:103350008368002B5DD194F85030012B00F0698117
:10336000012384F85030FDF751FA064694F85130A5
:10337000DBB26268012B0AD0B2F5827F40F03E8159
:10338000A268002A40F04581042B40F04481B8F146
:10339000000F00F04281B9F1000F00F04081002FD2
:1033A00000F03F8194F85130DBB2042B02D00523AA
:1033B00084F8513000236365C4F83890E787A78705
:1033C000C4F83080E786A78623646364A36AB3F5F4
:1033D000005F24D023681A6812F0400F03D11A68E6
:1033E00042F040021A60E368B3F5006F22D06368D0
:1033F0000BB1012F0BD1226B236812781A73236B48
:1034000001332363E38E9BB2013B9BB2E38601272A
:1034100094E040F27C41884800F014F99BE7226870
:10342000136823F4005313602268136843F40053B5
:103430001360CFE763680BB1012F0BD1226B2368B8
:103440001288DA60236B02332363E38E9BB2013B65
:103450009BB2E386012724E02268136843F480537B
:103460001360002700E0002723689A6812F0010F1C
:103470000ED0E28F92B25AB1DA68A36B1A80A36BB6
:103480000233A363E38F9BB2013B9BB2E387012727
:10349000FDF7BCF9801BA84203D3B5F1FF3F40F014
:1034A000C280E38E9BB21BB9E38F9BB2002B6BD023
:1034B00023689A6812F0020FD6D0E28E92B2002AE8
:1034C000D2D0002FD0D0226B1288DA60236B023367
:1034D0002363E38E9BB2013B9BB2E386E38E9BB2F8
:1034E000002BC0D1A36AB3F5005FB5D00027BBE7BE
:1034F0002268136843F480531360002700E000271C
:1035000023689A6812F0010F0ED0E28F92B25AB17E
:10351000DA68A36B1A70A36B0133A363E38F9BB2CA
:10352000013B9BB2E3870127FDF770F9831BAB4298
:1035300002D3B5F1FF3F78D1002D78D0E38E9BB256
:1035400013B9E38F9BB2FBB123689A6812F0020FA4
:10355000D6D0E28E92B2002AD2D0002FD0D0226BE9
:1035600012781A73236B01332363E38E9BB2013B02
:103570009BB2E386E38E9BB2002BC0D1A36AB3F566
:10358000005FB5D00027BBE7A36AB3F5005F0DD09D
:1035900023689A6812F0100F1BD0626D42F002028D
:1035A00062654FF6EF729A60012713E000962B4692
:1035B000012211462046FFF7A1FB20B92368DB68F2
:1035C0000393039BE4E7636D43F002036365032702
:1035D00015E00027324629462046FFF7F7FB48B999
:1035E000A36863B902932368DA6802929B68029326
:1035F000029B04E020236365012700E002270123EA
:1036000084F85130002384F85030384605B0BDE8C6
:10361000F0830227F3E70227F1E70127EFE701270D
:10362000EDE70127EBE70327E9E70327E7E70327B0
:10363000E5E70227E9E700BF2485000890F851007C
:103640007047000008B50A460146024800F084FAB7
:1036500000F002F85485000808B5034800F096FA17
:10366000012000F053F800BF8085000808B503462C
:103670000C4A12685AB10B4A1068033323F0030353
:103680000344094A934206D8064A136008BD054A16
:1036900006491160EFE703F087FA0C2303604FF04F
:1036A000FF30F3E7E001002000FC0120704600201D
:1036B000132809D8064B53F83030B3F1FF3F05D03B
:1036C000034B03EBC0007047002070470020704799
:1036D0006C02002030B51324002520462946ABBEDD
:1036E0000446204630BD38B5044603F05DFA054671
:1036F000FFF7F0FF2860204638BDB0F1FF3F00D053
:10370000704708B5FFF7EFFF08BD000000B530B9FE
:10371000044D182420462946ABBE0446FEE7024D60
:10372000F7E700BF26000200230002002DE9F04168
:1037300084B0234F019703260396002302930124AC
:1037400001AD20462946ABBE80461E4BC3F8008023
:10375000019703960423029320462946ABBE804678
:10376000194BC3F800800197039608230293204663
:103770002946ABBE0446154B1C60B4F1FF3F01D097
:1037800000230AE0104B1A68104B1A60F8E7104A41
:103790004FF0FF3142F833100133132BF7DD0C4BA0
:1037A000084A12681A6000225A600749096899603D
:1037B000DA600649096819615A6104B0BDE8F08110
:1037C0009485000864020020680200206002002046
:1037D0006C0200202DE9F04383B0814688462A4BD5
:1037E00000934F23019315276C4638462146ABBE04
:1037F0000746AFBB244B002283F84F20009A3E4679
:103800003C463D4607E001321E46204B43F825204A
:1038100001350124013292F90030FBB164B91C4931
:10382000C9560029F6DB092BF4D0082D16DC222B13
:10383000E9D0272BE9D1E6E736B19E42EAD1002351
:1038400013703E463C46E5E71149C956002901DBA5
:10385000092BDFD1002313703446DBE73DB900E0CC
:103860000025094B00221A70084A13600135074BE6
:10387000002243F82520C9F80050C8F80030FFF7AF
:1038800055FF03B0BDE8F083E401002034020020BE
:10389000C18A000830B585B00190029103920624D8
:1038A00001AD20462946ABBE04462046FFF725FF62
:1038B00005B030BD70B50D461446FFF7F9FE68B18E
:1038C0000646224629460068FFF7E4FFB0F1FF3FB5
:1038D00003D0201A73680344736070BD03F064F969
:1038E000092303604FF0FF30F7E7F0B583B00C46D3
:1038F0001546FFF7DDFEC0B10646022D1CD8012D8E
:1039000021D0022D29D03368009301940A256F46F7
:1039100028463946ABBE05462846FFF7EEFE00288E
:103920002BDB7460204603B0F0BD03F03DF90923A2
:1039300003604FF0FF30F6E703F036F9162303601B
:103940004FF0FF30EFE74368E418DCD503F02CF9C3
:10395000162303604FF0FF30E5E7036800930C2562
:103960006F4628463946ABBE05462846FFF7C5FEDA
:10397000B0F1FF3FD7D00444C5E74FF0FF30D2E7A6
:1039800008B5FFF7B2FF08BD30B585B001900291D0
:103990000392052401AD20462946ABBE04462046CD
:1039A000FFF7ABFE05B030BD70B50D461446FFF70E
:1039B0007FFE70B10646224629460068FFF7E4FF05
:1039C000031E11DBE01A7268024472609C4207D049
:1039D00070BD03F0E9F8092303604FF0FF30F7E70B
:1039E0000020FFF780FEF3E74FF0FF30F0E730B53F
:1039F00083B00190022401AD20462946ABBE0446A7
:103A00002046FFF77AFE03B030BD000038B504460B
:103A1000FFF74EFE80B10546601E012804D80C4B0E
:103A20009A681B699A420ED02868FFF7E0FF10B928
:103A30004FF0FF332B6038BD03F0B6F80923036065
:103A40004FF0FF30F7E74FF0FF332B600020F2E735
:103A50006C02002070B50C46FFF72AFEA8B106469E
:103A6000636843F4005363604FF48063A3640C25E0
:103A700028463146ABBE05462846FFF73EFEB0F16C
:103A8000FF3F01D02061002070BD03F08DF80923B5
:103A900003604FF0FF30F7E738B505460C46582273
:103AA0000021204603F078F821462846FFF7D2FF90
:103AB00038BD38B5FFF7FCFD80B105460924204626
:103AC0002946ABBE04462046012C06D003F06CF814
:103AD0000446FFF7FFFD2060002038BD03F064F8C6
:103AE000092303600020F8E7F0B585B006460D46CF
:103AF000154B1B688BB9154B0193042302930323C9
:103B00000393012401AF20463946ABBE044620464C
:103B1000B4F1FF3F13D00C4B1C600B4B1B6801939F
:103B200002960395052401AE20463146ABBE0446FD
:103B30002046B4F1FF3F02D0A54202D0281B05B0B9
:103B4000F0BD4FF0FF30FAE70C0300209485000829
:103B500008B5FFF7C9FF08BD0FB400B583B004ABCB
:103B600053F8042B01938021074803F007F800283D
:103B700004DC03B05DF804EB04B070470146024872
:103B8000FFF7E6FFF5E700BF1003002010B504467D
:103B900003F02BF801462046FFF7DAFF0121024827
:103BA000FFF7D6FF10BD00BF30860008BFF34F8F70
:103BB0000549CA6802F4E062044B1343CB60BFF3CB
:103BC0004F8F00BFFDE700BF00ED00E00400FA05E5
:103BD000F8B504460D4617461E462748FFF7BCFFBA
:103BE00021682648FFF7B8FF61682548FFF7B4FF52
:103BF000A1682448FFF7B0FFE1682348FFF7ACFF56
:103C000021692248FFF7A8FF61692148FFF7A4FF57
:103C1000A1692048FFF7A0FFE1691F48FFF79CFF5B
:103C20001E48FFF799FF29461D48FFF795FF1D4CD9
:103C3000E16A1D48FFF790FF216B1C48FFF78CFFDE
:103C4000E16B1B48FFF788FF15F0800F0AD115F4D0
:103C5000004F0CD11748FFF77FFF06991648FFF772
:103C60007BFFF8BD39461548FFF776FFEFE7314691
:103C70001348FFF771FFEDE798850008A885000855
:103C8000B8850008C8850008D8850008E8850008C0
:103C9000F8850008088600081886000828860008AD
:103CA0003486000800ED00E04486000854860008D1
:103CB00064860008948600089C86000874860008C4
:103CC0008486000838B583691B888B4201D00020A8
:103CD00038BD044603684568013B302B5ED8DFE8F9
:103CE00003F03B211C1C5330332D19195D19191990
:103CF00019193619245D19275D395D5D5D5D5D5DBE
:103D00005D5D5D5D5D5D5D5D5D5D5D5D5D5D5D5DE3
:103D10005D1919004FF0FF330360A3690233A361FB
:103D20000120D5E700230360F7E700230360F4E7F1
:103D300000232B606B60AB60EB60EEE70023036059
:103D4000EBE7AB680360E8E700230360E5E70023E7
:103D50000360E2E7FFF72AFF1149286802F02DFF10
:103D600040B96B6813B901232360D6E7042B05D053
:103D7000082B06D04FF0FF332360CEE702232360E9
:103D8000CBE703232360C8E72B68023B012B02D952
:103D9000AB680360C1E700230360BEE7002097E73C
:103DA0009485000808B500F069F8054B054A9A604B
:103DB000D3F8882042F47002C3F8882008BD00BF01
:103DC00000ED00E00000000830B594469E464368D0
:103DD000846805682EE0B1EC015A62EE057A65EE62
:103DE000A24A77EEA47A66EE836A77EEA67A66EE4A
:103DF000236A77EEA67A27EE047A77EE877AE0ECEC
:103E0000017A013AB0EE467AB0EE676AF0EE656A82
:103E1000F0EE455A002ADED1C3ED005AC3ED016A27
:103E200083ED026A03F1100283ED037A013D17D09E
:103E30001346614694ED002AD4ED012A94ED023A2E
:103E4000D4ED033A94ED044A1434D3ED005AD3ED83
:103E5000016A93ED026A93ED037A72466046D9E7F0
:103E600030BD38B504461D46016082600A0100215C
:103E7000184602F091FE656038BD0000054BD3F88E
:103E8000882042F47002C3F888204FF000629A60E4
:103E9000704700BF00ED00E010F0AA3F14BF012200
:103EA0000022030C1B0403B11023134310F0FF2264
:103EB00000D008221A4310F0F03300D0042313433B
:103EC00010F0CC3000D002201843704708B501F044
:103ED0005EFF002008BD38B50446052001F062FFF2
:103EE000E4B2012219212046FFF7F0FF0546032224
:103EF00080212046FFF7EAFF05444EF2220281218D
:103F00002046FFF7E3FF05444FF4C1424FF48261BE
:103F10002046FFF7DBFF05444AF280024FF483613D
:103F20002046FFF7D3FF05444AF280024FF4846134
:103F30002046FFF7CBFF05444FF460424FF4856104
:103F40002046FFF7C3FF05444DF61A4240F24341B5
:103F50002046FFF7BBFF054466224FF496612046DA
:103F6000FFF7B4FF05440B224FF48B612046FFF7A7
:103F7000ADFF0544002240F212212046FFF7A6FFC4
:103F80000544002240F271112046FFF79FFF0544CF
:103F90000C2240F25E312046FFF798FF05440022D4
:103FA0004FF435712046FFF791FF05440022802130
:103FB0002046FFF78BFF0544052001F0F3FE28465D
:103FC00038BD00002DE9F84345F2226399420DD037
:103FD0004AF6444399420BD042F61133994203D03A
:103FE000504C4901002307E04F4CFAE74E4CF8E7EC
:103FF0004D4CF6E70133DBB29C4603EB43024B4DDD
:1040000055F822207AB19142F4D30CEB4C05474A83
:1040100002EB850252689142ECD2444B03EB8502DD
:10402000167A577A01E0102701264FEA8409B9FB76
:10403000F1F91FFA89F9C5B2002240F29111284620
:10404000FFF744FF804649F400424FF4C971284607
:10405000FFF73CFF8044002240F293112846FFF70F
:1040600035FF804401224FF4CA712846FFF72EFF26
:1040700080443046FFF710FF86B2320292B242F01F
:10408000080240F295112846FFF720FF8044B20154
:1040900092B242F008024FF4CB712846FFF716FFA8
:1040A00000EB08063846FFF7F7FE820092B240F2B6
:1040B00099112846FFF70AFF0644012240F29111A8
:1040C0002846FFF703FF0644062240F6044128462F
:1040D000FFF7FCFE064400224FF4D5712846FFF797
:1040E000F5FE064409224FF4D5712846FFF7EEFE8F
:1040F0000644052001F056FE0A4B9C4209D048F2C6
:10410000452240F201112846FFF7E0FE3044BDE8A9
:10411000F88340F2452240F201112846FFF7D6FE0F
:104120003044F4E70000770100885801388900081E
:1041300070B58446002301E00133DBB21C460D4A12
:1041400052F83300A0B18842F6D15FFA8CF5094EDF
:1041500006EBC40632794FF481712846FFF7B6FEAC
:10416000044672794FF4A0612846FFF7AFFE204461
:1041700070BD00BF7489000808B5FFF7D9FF0020A3
:1041800008BD38B5C4B2022240F204512046FFF700
:104190009DFE0546042240F202512046FFF796FE9E
:1041A0000544012001F0FEFD002240F21A51204694
:1041B000FFF78CFE0544002240F219512046FFF71C
:1041C00085FE054441F2100240F207512046FFF7F8
:1041D0007DFE054441F210024FF4A1612046FFF735
:1041E00075FE0544202240F206512046FFF76EFE80
:1041F0000544202240F205512046FFF767FE0544A2
:10420000032240F21A512046FFF760FE05440322C4
:1042100040F219512046FFF759FE284438BD38B501
:10422000012921D0C4B24FF4207240F21941204636
:10423000FFF74CFE05464FF4207240F21D41204628
:10424000FFF744FE05444FF4207240F2114120462E
:10425000FFF73CFE05444FF4207240F21541204622
:10426000FFF734FE284438BDC4B24FF4407240F228
:1042700019412046FFF72AFE05464FF4407240F2EE
:104280001D412046FFF722FE05444FF4407240F2E4
:1042900011412046FFF71AFE05444FF4407240F2E8
:1042A00015412046FFF712FE2844DCE708B500213F
:1042B000FFF7B5FF08BD08B50121FFF7B0FF08BD46
:1042C00008B50021FFF7ABFF08BD08B50121FFF7D6
:1042D000A6FF08BD70B50546642932D801EB41043C
:1042E000C1EB84142D4B83FB0423E417C4EB63144C
:1042F000E4B2BF2C26D90021FFF791FF0446EDB2AE
:1043000040F2BF2240F219412846FFF7DFFD044486
:1043100040F2BF2240F21D412846FFF7D7FD04447A
:1043200040F2BF2240F211412846FFF7CFFD04447E
:1043300040F2BF2240F215412846FFF7C7FD204456
:1043400005E0642421B901212846FFF768FF70BD0C
:1043500000212846FFF763FF0646EDB244F40074DF
:10436000224640F219412846FFF7B0FD0644224696
:1043700040F21D412846FFF7A9FD0644224640F2BF
:1043800011412846FFF7A2FD0644224640F215419E
:104390002846FFF79BFD3044D9E700BF1F85EB514E
:1043A00070B582B0044620238DF8043021238DF8A7
:1043B0000530022976D037D801292BD1C5B2202269
:1043C0004FF4D2612846FFF781FD0646802240F275
:1043D00091612846FFF77AFD064421224FF4D3610C
:1043E0002846FFF773FD0644802240F29961284673
:1043F000FFF76CFD064400224FF4D0612846FFF71A
:1044000065FD064400224FF4D1612846FFF75EFDAA
:10441000064400E000260F224FF48061E0B2FFF76F
:1044200055FD304402B070BD0339C9B2012965D8C9
:10443000C5B220224FF4D2612846FFF747FD064659
:10444000802240F291612846FFF740FD0644212278
:104450004FF4D3612846FFF739FD0644802240F22D
:1044600099612846FFF732FD064420224FF4D061BF
:104470002846FFF72BFD0644802240F28161284642
:10448000FFF724FD064421224FF4D1612846FFF7AF
:104490001DFD0644802240F289612846FFF716FD83
:1044A0000644B8E7C5B200224FF4D2612846FFF7B0
:1044B0000DFD064600224FF4D3612846FFF706FDA6
:1044C000064420224FF4D0612846FFF7FFFC064443
:1044D000802240F281612846FFF7F8FC0644212241
:1044E0004FF4D1612846FFF7F1FC0644802240F2E8
:1044F00089612846FFF7EAFC06448CE700268AE734
:1045000008B500221146C0B2FFF7E0FC08BD08B5AF
:1045100001F03CFC08BD10B5044601F0F1FB0021A0
:10452000E0B201F03AFC10BD08B501F036FCC0B2B3
:1045300008BD2DE9F8430F4615461C46DDF82090CE
:10454000DDF824804FF4E063A9F800304FF4E16314
:10455000A8F80030C6B2B9F800103046FFF7E4FF03
:104560002880B8F800103046FFF7DEFF20802B8847
:10457000502B0CD02388512B16D0022F05D02B881E
:10458000602B1ED02388612B28D0BDE8F8834FF420
:1045900008613046FFF7C8FF2880022FEAD04FF4A9
:1045A0000863A9F80030E5E740F688013046FFF7D8
:1045B000BBFF2080022FE0D040F68803A8F800302F
:1045C000DBE74FF410613046FFF7AEFF2880012F84
:1045D000D8D04FF41063A9F80030D3E740F60811A3
:1045E0003046FFF7A1FF2080012FCED040F6081300
:1045F000A8F80030C9E770B584B004460D4602AB98
:1046000001930DF10A03009303AB0DF10E0200219B
:10461000FFF78FFF022D00F08280032D00F0B580A0
:10462000012D2DD01423ADF80E301523ADF80C302C
:10463000E5B230224FF440712846FFF747FC0646AA
:1046400042F290224FF448712846FFF73FFC06449F
:104650004FF4207240F221312846FFF737FC064420
:1046600090224FF449712846FFF730FC06444FF47E
:10467000207240F225312846FFF728FC85192DE0ED
:104680001223ADF80E301323ADF80C30E5B20C2236
:104690004FF440712846FFF719FC06464FF452527A
:1046A0004FF446712846FFF711FC06444FF4207280
:1046B00040F21D312846FFF709FC06444FF42072F2
:1046C00040F219312846FFF701FC064440F2A712D8
:1046D00040F219212846FFF7F9FB8519E4B2BDF82D
:1046E0000E20BDF80A102046FFF7F0FB0544BDF888
:1046F0000C20BDF808102046FFF7E8FB0544802297
:1047000040F201712046FFF7E1FB0544802240F2B0
:1047100009712046FFF7DAFB284404B070BD10236E
:10472000ADF80E301123ADF80C30E5B203224FF492
:1047300040712846FFF7CAFB06464FF42A524FF451
:1047400044712846FFF7C2FB064480224FF44571AE
:104750002846FFF7BBFB06444FF4207240F21131AC
:104760002846FFF7B3FB06444FF4207240F21531A0
:104770002846FFF7ABFB064440F2A7124FF4067140
:104780002846FFF7A3FB8519A8E71423ADF80E30E0
:104790001523ADF80C30E5B230224FF440712846B5
:1047A000FFF794FB064642F290224FF448712846E8
:1047B000FFF78CFB06444FF4207240F2213128466B
:1047C000FFF784FB064490224FF449712846FFF717
:1047D0007DFB06444FF4207240F225312846FFF756
:1047E00075FB85197AE72DE9F047044690469A460D
:1047F0005FFA81F90E0A01F083FAE7B2002211464E
:104800003846FFF763FB05462046FFF764FB514639
:104810002046FFF7D7FB054451462046FFF788FCAA
:10482000054409224FF48B613846FFF74FFB0544DE
:1048300001224FF400713846FFF748FB0544D522AA
:104840004FF404713846FFF741FB05442046FFF75B
:1048500098FC49462046FFF7A3FD31462046FFF766
:10486000CAFE41462046FFF735FD2846BDE8F087E1
:104870002DE9F04184B004460E4615461F4602ABB2
:1048800001930DF10A03009303AB0DF10E02012118
:10489000FFF74FFEFEB15FFA84F8012E4ED00322DF
:1048A0004FF46C614046FFF711FB3A4640F6C16198
:1048B0004046FFF70BFBBDF80E204FF41061404659
:1048C000FFF704FB802240F601114046FFF7FEFA95
:1048D0006023ADF80E30FDB1E6B2012D30D00322D9
:1048E00040F6C4613046FFF7F1FABDF8282040F6E3
:1048F000C5613046FFF7EAFABDF80C2040F6081112
:104900003046FFF7E3FA802240F609113046FFF700
:10491000DDFA6123ADF80C30E4B2BDF80E20BDF82D
:104920000A102046FFF7D2FABDF80C20BDF8081097
:104930002046FFF7CBFA04B0BDE8F0810122AFE7D3
:104940000122CDE72DE9F04F85B005468A46904615
:104950001C46DDF838900F9F109E02AB01930DF1BD
:104960000A03009303AB0DF10E020221FFF7E1FDF4
:10497000BAF1000F4ED06CB3E8B294F900300C33AA
:1049800094F901200C32920142EAC32212B294F946
:1049900002300C3342EA430242F0010292B24FF479
:1049A00061618346FFF792FA94F903300C3394F96E
:1049B00004200C32920142EAC322BAF1010F08BF6F
:1049C00042F00102B2FA82F2520940F611615846F1
:1049D000FFF77CFA6FB1002409E004F6126137F8A2
:1049E000142089B2E8B2FFF771FA0134A4B2122C94
:1049F000F3D9ECB2BDF80E204FF408612046FFF762
:104A000065FA802240F681012046FFF75FFA5023C5
:104A1000ADF80E30B8F1000F50D0B9F1000F2DD025
:104A2000ECB299F900300C3399F901200C32920163
:104A300042EAC32212B299F902300C3342EA43022D
:104A400042F0010292B240F626612046FFF73EFA9C
:104A500099F903300C3399F904200C32920142EA9F
:104A6000C322B8F1010F08BF42F00102B2FA82F28C
:104A7000520940F627612046FFF728FA6EB100245C
:104A800009E004F6286136F8142089B2E8B2FFF78D
:104A90001DFA0134A4B2122CF3D9ECB2BDF80C20EB
:104AA00040F688012046FFF711FA802240F689017E
:104AB0002046FFF70BFA5123ADF80C30EDB2BDF8EC
:104AC0000E20BDF80A102846FFF700FABDF80C20AA
:104AD000BDF808102846FFF7F9F905B0BDE8F08FDA
:104AE000704710B582B0044600238DF80730FBF7FD
:104AF00055FD8DF80740012220210DF10700FBF73D
:104B00009BFD240A8DF80740012224210DF10700A6
:104B1000FBF792FD02B010BD00B583B000238DF805
:104B20000730FBF73BFD01220F210DF10700FBF7DA
:104B3000A5FD9DF8070003B05DF804FB00B583B048
:104B4000012225210DF10700FBF798FD9DF80730A4
:104B500063F07F038DF80730012225210DF1070056
:104B6000FBF76AFD03B05DF804FB000010B584B0EC
:104B70000446012224210DF10700FBF77FFD0122ED
:104B8000282102A8FBF77AFD012229210DF1090055
:104B9000FBF774FD01222A210DF10A00FBF76EFDDF
:104BA00001222B210DF10B00FBF768FD01222C21C6
:104BB00003A8FBF763FD01222D210DF10D00FBF78A
:104BC0005DFD9DF8073003F03803083B182B0ED825
:104BD000DFE803F01A0D0D0D0D0D0D0D110D0D0D6E
:104BE0000D0D0D0D140D0D0D0D0D0D0D17009FED7F
:104BF000177A002225E09FED167AFAE79FED157AE5
:104C0000F7E79FED157AF4E79FED147AF1E753008B
:104C100003F11101694411F9081C10336B4413F9B5
:104C2000083C03EB012307EE903AF8EEE77A67EED3
:104C3000877AFDEEE77A17EE903A24F812300132C7
:104C4000D2B2022AE3D904B010BD00BF8FC2753DB5
:104C5000EC51383E8FC2753E48E13A3F8FC2F53D78
:104C600010B582B0044600238DF8073042780178F1
:104C700083780A4313438DF80730012223210DF175
:104C80000700FBF7D9FCE378227913438DF807304E
:104C9000012221210DF10700FBF7CEFC6379A279F7
:104CA00013438DF80730012222210DF10700FBF795
:104CB000C3FC02B010BD30B583B000258DF807509D
:104CC000FBF792FC8DF801508DF8005040238DF8D1
:104CD00002308DF8035001248DF805408DF8065000
:104CE0006846FFF7BDFF03238DF8073022465221A7
:104CF0000DF10700FBF7A0FCC8238DF80730224612
:104D000054210DF10700FBF797FC45238DF8073080
:104D1000224656210DF10700FBF78EFCFC238DF88F
:104D2000073022465A210DF10700FBF785FCA1232D
:104D30008DF8073022465B210DF10700FBF77CFC64
:104D40008DF8074022465C210DF10700FBF774FC4B
:104D500022467B210DF10700FBF76EFC2246602105
:104D60000DF10700FBF768FC06238DF8073022469B
:104D700061210DF10700FBF75FFC28238DF8073058
:104D8000224662210DF10700FBF756FC11238DF836
:104D90000730224663210DF10700FBF74DFC03B0FD
:104DA00030BD704710B582B0044600238DF807303F
:104DB000FBF7F4FB8DF80740012220210DF10700DD
:104DC000FBF73AFC02B010BD00B583B000238DF8AC
:104DD0000730FBF7E3FB01220F210DF10700FBF782
:104DE0004DFC9DF8070003B05DF804FB10B582B0E0
:104DF000044600238DF80730012221210DF1070020
:104E0000FBF73CFC9DF8073003F0D0038DF807302A
:104E100023438DF80730012221210DF10700FBF714
:104E20000BFC02B010BD00B585B000238DF8073033
:104E3000012239210DF10700FBF720FC0622272172
:104E400002A8FBF71BFC05B05DF804FB00B583B0BE
:104E5000012221210DF10700FBF710FC9DF807301E
:104E600043F040038DF80730012221210DF10700A6
:104E7000FBF7E2FB03B05DF804FB10B586B0044617
:104E8000012220210DF10700FBF7F8FB0622292162
:104E900004A8FBF7F3FB002308E006AA02EB430299
:104EA00012F9081C22F8101C0133DBB2022BF4D9D2
:104EB0009DF8073003F0200313B9122100230CE002
:104EC0004821FBE706AA02EB430232F9102C12FB41
:104ED00001F224F813200133DBB2022BF2D906B021
:104EE00010BD10B582B0044600238DF807300122B2
:104EF00038210DF10700FBF7C1FB22786178A37818
:104F00000A4313438DF80730012238210DF10700C1
:104F1000FBF792FB02B010BD30B583B000238DF8D3
:104F20000730FBF761FB40238DF8043010238DF828
:104F3000053020238DF8063001A8FFF7D2FF3F246B
:104F40008DF80740012222210DF10700FBF774FBC9
:104F500050238DF80730012238210DF10700FBF7AF
:104F60006BFBAA238DF8073001223B210DF10700CE
:104F7000FBF762FB0A238DF8073001223C210DF17B
:104F80000700FBF759FB4C238DF807300122302135
:104F90000DF10700FBF750FB03238DF807300122CA
:104FA0003D210DF10700FBF747FB7F258DF80750EA
:104FB00001223E210DF10700FBF73EFB8DF8075063
:104FC000012221460DF10700FBF736FB03B030BD8F
:104FD00030B595B0002401941C4B1A6C42F08052FD
:104FE0001A641B6C03F080530193019B0294184BCD
:104FF0001A6842F480421A601B6803F480430293EB
:10500000029B012303934FF48033049302250995F7
:105010004FF480030A9308230B934FF4A8730C9367
:105020000D9507230E9303A8FDF7C4F80F230F93E4
:10503000109511944FF4A05312934FF4805313938F
:1050400005210FA8FDF7A4FB15B030BD00380240C4
:105050000070004008B5FEF711FF074AD2F888300B
:1050600043F47003C2F88830FBF7AAFBFBF7E8FBB8
:10507000FFF7AEFF08BD00BF00ED00E00C4AD2F81C
:10508000FC3043F08073C2F8FC300A4B00225A60B7
:105090001A6802F001021A601A6842F001021A60EE
:1050A0005A6800BF00BF00BF5868801A704700BF31
:1050B00000ED00E0001000E030B5ADF5005D85B01A
:1050C000FBF77EFBFFF7DAFF4BF68032502140F210
:1050D000033000F0B1FC032000F09CFD012000F043
:1050E00073FD4FF480526549654800F0FDFC654B47
:1050F000187800F05FFDFBF7E5FA00F031F9624B3C
:10510000624A012101A8FEF7ACFE614B19786148A3
:10511000FEF722FD9DE0604B00225A605B685C4B0D
:105120001B78022B24D05D4B00221A7096E0534B63
:1051300033F91420524B23F814200134B4F5006FD6
:1051400019D214F0010FF2D04C4B33F9140000F0D7
:105150007FFF00224FF07C5300F0E4FF01F01CFAC7
:105160000DF58053103303EB850318600135E4E738
:1051700000252C46E2E704AA4FF480630DF5805128
:105180001031A2F10C00FEF71FFE00210B4600E0DB
:105190000133B3F5006FC6D213F0010FF8D004AAA3
:1051A00002EB8102D2ED007AFEEEE87A344A17EE85
:1051B000900A22F813000131EAE7304B33F914204A
:1051C0002F4B23F814200134B4F5805F16D214F06D
:1051D000010FF2D0294B33F9140000F039FF0022FF
:1051E0004FF07C5300F09EFF01F0D6F90DF580538F
:1051F000103303EB850318600135E4E704AA4FF48C
:1052000080630DF580511031A2F10C00FEF7DCFD3A
:1052100000254FF4006400E00134B4F5805F13D240
:1052200014F0010FF8D004AB03EB8503186800F00D
:1052300021FF00221A4B00F075FF01F085F9104B99
:1052400023F814000135E7E7144B00221A7000F030
:105250008DF8124B1B78012B3FF45DAF0F4B1B7881
:10526000022BF4D10C4B00225A605B68084B1B7870
:10527000022BE9D100254FF40064A5E7A403002028
:10528000A4230020B500002090030020C48900085A
:10529000B4000020E0860008001000E0A003002019
:1052A0000000E040014B02221A707047A00300206A
:1052B000014B01221A707047A003002008B501209D
:1052C000FCF7B2F808BD000008B5024BD86BFBF73D
:1052D0002DFE08BD8044002008B5024B986BFBF7FB
:1052E00025FE08BD804400207047FEE7FEE7FEE78C
:1052F000FEE770477047704708B5FBF77BFAFBF78E
:1053000048FB08BD38B500240CE0651C29460F4851
:10531000FEF722FC00230E4A224401210D4800F032
:105320005BF92C46042CF0D900240CE0651C2946BE
:105330000948FEF711FC0023084A224401210548D0
:1053400000F04AF92C46042CF0D938BD1487000827
:10535000B4430020388700083C870008AC43002095
:1053600008B501210020FBF7CFF808BD504B1B7892
:10537000002B00F09B8000B583B04D4B1B78013BA8
:105380000F2B0FD8DFE803F008141927353E474EDE
:1053900059646F787B7E868E4FF48052454946482B
:1053A00000F0A2FB424B00221A7003B05DF804FB30
:1053B000424B187800F0FEFBF4E7002000F0D8FB29
:1053C0004FF4FA5000F030FC4FF4805239493A481B
:1053D00000F08AFBE6E7002000F0CAFB4BF68030C5
:1053E00000F022FC4FF480523249334800F07CFB3D
:1053F000D8E7334B1B88334A12880121084600F056
:10540000EDFBCFE72E4B1B882E4A1288022108465F
:1054100000F0E4FBC6E700231A461946184600F0E0
:10542000DDFBBFE7284B0193284B0093284B294A0B
:105430000121084600F0DEFBB4E7234B0193234B28
:105440000093244B224A0121084600F0D3FBA9E730
:105450001D4B01931D4B00931F4B204A0121084611
:1054600000F0C8FB9EE70020019000900346024632
:10547000014600F0BFFB95E700F052FB92E700F019
:1054800063FB8FE700F04CFB154B00221A7000F015
:105490005BFB87E700F044FB114B01221A7000F020
:1054A00053FB7FE7002000F063FB7BE7704700BF02
:1054B000A8430020A4030020A4230020B50000205E
:1054C0001601002018010020B8000020E000002094
:1054D0000801002010010020AC430020B44300204C
:1054E000B4000020012800D0704710B582B0002021
:1054F000FBF74AF8012808D0FBF788F9234B1B6813
:10550000C01A142806D802B010BDFBF77FF91F4B54
:105510001860F8E700F004FB1D48FEF71DFB0024AF
:1055200007E01C4B03EBC4035A681B48FEF714FB4F
:105530000134184B13F834100029F2D100230DF177
:1055400007021946154800F047F89DF80720144B4C
:105550001A701B78DAB2022B08D00A2A12D000F097
:10556000F3FAFBF753F9094B1860CCE70D4C21789F
:105570000D48FEF7F1FA0023224619460B4800F0C9
:105580002BF8ECE7FFF7BEFEE9E700BFA4430020DD
:1055900050870008D88900086887000874870008C9
:1055A000A8430020B50000207C87000890870008F1
:1055B00008B501F0D7F9064B1B5613F0040FF8D0CD
:1055C0002D28F6D0034B1B68596801F0A1FA08BDDD
:1055D000C18A00081C0100200FB410B584B006ABCE
:1055E00053F8040B01930FE0FFF7E2FF03A91D48F6
:1055F00001F0C0F90028F7D09DF80C302370019B12
:105600001A1D0192186838B3FEF7A6FA019A131D05
:105610000193116802F1080301935468012906D02F
:10562000022910D00029E1D0E9E7FFF7C1FF03A963
:105630000C4801F09FF90028F7D09DF90C30237039
:10564000DDE7FFF7B5FF02A9074801F093F900284D
:10565000F7D0029B2360D2E704B0BDE8104004B04D
:10566000704700BF188900081C8900082DE9F04721
:1056700088B000270197274C236B43F00203236374
:10568000236B03F002030193019B4FF0010ACDF855
:1056900010A04FF00208CDF8188005974FF48059FC
:1056A000CDF80C9003AE1C4D31462846FBF72CFD7F
:1056B000CDF810804FF4005303934FF00508CDF858
:1056C0001C8031462846FBF71FFD4FF4004303932F
:1056D000CDF81C8031462846FBF716FD4FF4804379
:1056E0000393CDF81C8031462846FBF70DFD52464A
:1056F00049462846FBF77CFE0297236C43F480431F
:105700002364236C03F480430293029B08B0BDE83A
:10571000F08700BF00380240000402402DE9F04F3E
:105720008DB000240194624D2B6B43F001032B6379
:105730002B6B03F001030193019B02942B6B43F04D
:1057400004032B632B6B03F004030293029B03946B
:105750002B6B43F004032B632B6B03F004030393C5
:10576000039B04942B6B43F004032B632B6B03F01C
:1057700004030493049B022308930A9309944FF0B3
:105780001009CDF81C9006260B9607AF39464948FC
:10579000FBF7BAFC4FF4806BCDF81CB00B96DFF82A
:1057A000288139464046FBF7AFFC4FF480530793FE
:1057B0000B9639464046FBF7A7FC4FF4006ACDF83C
:1057C0001CA005230B9339464046FBF79DFC802324
:1057D00007930B9639464046FBF796FC05942B6CD5
:1057E00043F400432B642B6C03F400430593059BA7
:1057F00006942B6B43F400132B632B6B03F4001301
:105800000693069B2C4F7C60BC60FC60C7F810B010
:10581000C7F814A04FF40050B8614FF48071F961DB
:105820004FF400323A627C620323BB62FC623C6349
:1058300005F5205510353D60204D4FF0806CC5F8C2
:1058400004C04FF0400CC5F808C0EC60C5F810B0BB
:10585000C5F814A0A861E9612A6204226A62AB62F9
:10586000EC622C63164B2B603846FBF75BFA28463C
:10587000FBF758FA3846FBF70DF92846FBF70AF90B
:10588000104BDF63BB639D63AB63224631460B2045
:10589000FBF730F8224605214846FBF72BF80B2092
:1058A000FBF74CF84846FBF749F80DB0BDE8F08F20
:1058B000003802400000024020440020C043002085
:1058C00088600240804400200008024008B511486A
:1058D000114B0360DA6922F48062DA61002383608D
:1058E000C360036101220262C3610C4B1B68436108
:1058F000082383614FF440734360FCF771F930B1C2
:105900000448FBF7C9FD0520FAF786FF08BDFFF73D
:1059100005FFF5E780440020003C0040BC43002028
:1059200008B5FFF7A3FE0D480D4B0360002383600D
:105930004FF4827242604FF40062C26003614361BF
:105940002822C261036283620722C2624FF400729E
:1059500082614362FDF770FA08BD00BFC8440020B1
:105960000038004008B50348FDF7BAFBFFF7D8FF41
:1059700008BD00BFC844002030B583B0C0F30E435B
:10598000ADF80030ADF802004FF6FF73ADF804300B
:10599000ADF806100D4D00224FF480512846FBF75C
:1059A00027FD4FF48053042269460948FDF7C4FBE4
:1059B000044601224FF480512846FBF719FD0CB92B
:1059C00003B030BDFFF7CEFFFAE700BF000402408E
:1059D000C844002070B586B0030C43F40043ADF812
:1059E0001030ADF812004FF6FF73ADF814300022FE
:1059F000ADF816200E4D4FF480512846FBF7F8FC09
:105A00004FF480560096042302AA04A90948FDF722
:105A100095FC0446012231462846FBF7E9FC1CB9F7
:105A2000BDF80E0006B070BDFFF79CFFF8E700BFA1
:105A300000040240C84400202DE9F04184B007462C
:105A400088461546FF26002301E00133DBB2072B11
:105A500006D81F4C54F82340AC42F6D11E46F4E75A
:105A60006846FDF7F9F816F0070F1AD001230093E6
:105A7000184B53F826300193174B53F826300293F6
:105A80006846FCF797FF154B1D60154B9B6834204B
:105A9000984745F2021398420ED0012004B0BDE8A9
:105AA000F081012300934FF4817301930323029348
:105AB0006846FCF77FFFE6E7094B0A4A13601C685B
:105AC0002B46424639463420A0470020E6E700BF77
